:1000000003308A00DD2B00000A108A100A118207D3
:1000100028340C3401340634201020102010C32260
:10002000D4242010201020100A1020102010C327E4
:10003000CC27CD27531020102000D4234F17A02207
:100040004E10C3274E2AD2274C108A20552ACF267D
:10005000412AC9214F104510492753002010A022E2
:10006000CC22432AD227CE24C32020100A102010ED
:100070002022C923492A4126202B20102000C420F9
:10008000D6244410CD2044294922201020102005D8
:10009000B11B31183019B01820102010201020107A
:1000A000201020100001C822432A4F292029D524DE
:1000B0005A10201020108A18B7183018321C371028
:1000C00020102010201020102000C320CD20432419
:1000D0004F10CD20D420201020102005B11B311846
:1000E0003018B51B2010201020102010200050299F
:1000F000C121D424C320A01C202A4121CC200A22C3
:100100004510442A53104527A0224528D2274D00E8
:100110003110AD163E10CC224529201020102010A1
:100120000A19A0162D1FA022D321D224C2245210B6
:1001300020003110AD163E10CC2245292010201091
:1001400020100A19A0162D1FA022D321D224C224C8
:10015000521020003110AD163E10CC22452920103F
:10016000201020150A19A0162D1FA022D321D22459
:10017000C224521020003110AD163E10CC22452969
:100180002010201020100A19A0162D1FA022D32104
:10019000D224C22452102A00D027D324C3244F27AC
:1001A000A01E2018301820100A1027152710C3276A
:1001B0004E234929CD2052102000D027D324C32418
:1001C0004F27A01E2018301820100A1027152710BE
:1001D000C3274E234929CD2052102000D027D324F5
:1001E000C3244F27A01EA012F512F512751020058A
:1001F000A013AA13A0214F27C624D22641292010DC
:100200000000D620CC2752103D10A53A2010201017
:1002100020102005D027D324C3244F27A01EA012CE
:10022000751020102000D027D324C3244F27A01EF0
:10023000A012F512F51275102005A013AA13A02123
:100240004F27C624D226412920100001D620CC27D2
:1002500052103D10301830102010201020100A10BD
:1002600027152710C3274E234929CD2052102000DF
:10027000D620CC2752103D10A53AA53AA53A201019
:1002800020102005A013AA13A0214F27C624D22690
:10029000412920100001D620CC2752103D10A53A4C
:1002A0002010201020102005D027D324C3244F274E
:1002B000A01EA0127510201020004130840083136E
:1002C0000008031971290130F800F701F70B6629BE
:1002D000F80B65294A30F700F70B6C296F29800B62
:1002E00063290800480EF039F7000F30080577043D
:1002F0008800000008147C29081008008810F030DD
:1003000083168800831208150000081400000808EE
:10031000080E0F39C8000810000008140000080873
:10032000080E0F39C70008100030831688008312AA
:10033000480EF700F030F70577084704F800780812
:10034000C700C71B7F29451C88104518881400006A
:10035000081100000810460EC7000F30C7054708F7
:10036000C800722146080F39C700C8007221080072
:1003700000308316880083128810081108100F308F
:10038000C1005D210130BB003B08033C031CD029A8
:100390000330C80072210530C1005D21BB0AC429A9
:1003A0000230C8007221BB013B08033C031CE12959
:1003B0003B080420BC00C5013C08C6007E21BB0AE6
:1003C000D4298A110A12232C420BE729EA2940304A
:1003D000C300EB29C30101304102C3074308803841
:1003E000C400C5014408C6007E21080040080C3A3C
:1003F0000319012A063A0319092A023A03190F2A96
:10040000142AC5010130C6007E210230C1005D21E1
:100410001A2A0130C1000230C200E4211A2AC501A3
:100420001030C6007E211A2A0130C5004008C600DF
:100430007E211A2A0800831603178C170C1400005B
:10044000000083120C087F3903195F2A0313BB00D5
:1004500003170D080313BC0003170F080313BD0097
:100460003B08C000F6213C0803178D0003133D082C
:1004700003178F0083168C170C14000000008312E2
:100480000C0D0E0D7F3903195F2A0313BB000317F0
:100490000D080313BC0003170F080313BD003B082E
:1004A000C000F6213C0803178D0003133D08031715
:1004B0008F008D0A03198F0A03131B2A03170313D6
:1004C00008000130C100C200E4210C3003178D0088
:1004D00000308F0003131B220230BB00FA30C10032
:1004E0005D21BB0B6E2A0130C100C200E4211D302A
:1004F00003178D0000308F0003131B220230BB0056
:10050000FA30C1005D21BB0B802A0130C100C2005E
:10051000E4212E3003178D0000308F0003131B22BF
:100520000230BB00FA30C1005D21BB0B922AA20150
:100530002208023C031CCF2A22080319A62A013AEA
:100540000319B22A033A0319BE2ACA2A0130C1008C
:10055000C200E4213F3003178D0000308F000313E9
:100560001B22CA2A0130C100C200E4215330031704
:100570008D0000308F0003131B22CA2A0130C100F6
:10058000C200E421653003178D0000308F00031393
:100590001B22CA2AC830C1005D21A20A982A013054
:1005A000C100C200E421773003178D0000308F00B6
:1005B00003131B220230BB00FA30C1005D21BB0BCC
:1005C000DC2A8A110A12242CEF30A300A401A10115
:1005D0002108033C031C072B0310A30C0508F0396A
:1005E000BB0023080F39BB043B088500851F072B80
:1005F000A40A051F072BA40A851E072BA40A051EA3
:10060000072BA40A1430C1005D21A10AE82A0800C2
:1006100024080C3C03191E2B2608643C0319122BDA
:100620002708A8002608643C0319182B2608A700F1
:100630002B302407840083130008A60008008316CB
:1006400003178C170C140000000003184E2B8312A4
:100650000C087F390313BD0003170D080313BE00F8
:1006600003170F080313BF003D08C000F6213E0822
:1006700003178D0003133F0803178F0083168C1791
:100680000C140000000083120313BC0B482B4B2BEF
:10069000831603174E2B6D2B8316031783120C0D35
:1006A0000E0D7F390313BD0003170D080313BE00A1
:1006B00003170F080313BF003D08C000F6213E08D2
:1006C00003178D0003133F0803178F008D0A0319CA
:1006D0008F0A03100313BC0B1F2B08003F08F801FF
:1006E0003E020318762B3E08F700822BF7010830F4
:1006F000C000BE0DF70D3F0877020318F700F80D94
:10070000C00B792B080078083C08BE006430BF009D
:100710006E237708BC0078083030031D962BBD1C73
:100720009D2BBD199D2B3D1A2030992BBD113D12DB
:100730003D14F8077808C000F6213C08BE000A30D6
:10074000BF006E237708BC0078083030031DAE2B45
:10075000BD19B22B3D1CB22B3D1A2030F80778088A
:10076000C000F6213030BC073C08C000F62108006C
:10077000F701F8013C0803103D18F707F70CF80CD7
:10078000BD18F707F70CF80C3D19F707F70CF80C34
:10079000BD19F707F70CF80C3D1AF707F70CF80C22
:1007A000BD1AF707F70CF80C3D1BF707F70CF80C10
:1007B000BD1BF707F70CF80C0800840183131F30EA
:1007C0008305A001A101A201A301A401A501A60125
:1007D000A701A801A901831603170908C0398900D8
:1007E00003131F129F120030031788008312870122
:1007F0008801890101300313AB000230AC000330E3
:10080000AD006430AE000430AF000530B0000630FB
:10081000B1006430B2000730B3000830B4000930D2
:10082000B5006430B600C830B700B8016530B90013
:100830006430BA00F0308316850083120508F03961
:10084000BB008500B829612A0130C100C200E42143
:10085000883003178D0000308F0003131B222008FF
:10086000FF3C031D402C0130C100C200E42199303F
:1008700003178D0000308F0003131B22A0012F2CC3
:10088000A008031D9E2CE42224080F3C031C9D2C71
:100890002B302407840083130008093C031C732CAD
:1008A0002B302407840083130008A500250B642C3B
:1008B0000130C100C200E421AA3003178D000030CE
:1008C0008F0003131B22732C2508023C031D732C7D
:1008D0000130C100C200E421BB3003178D0000309D
:1008E0008F0003131B2224080C3C031D982C250B9E
:1008F000872C0130C100C200E421CC3003178D00E9
:1009000000308F0003131B220130A000982C250813
:10091000023C031D982C0130C100C200E421DD30EF
:1009200003178D0000308F0003131B220230A0003C
:10093000E42224080F3C0318982C402C200B322D65
:10094000E42224080F3C031C312D2B3024078400A3
:1009500083130008093C031CE52C08230130C10067
:10096000C200E421EE3003178D0000308F00031029
:100970000B300313BC001F232808BC001B30BD0034
:1009800083232708BC001B30BD0083232608BC003E
:100990001B30BD008323F63003178D0000308F001D
:1009A000031413300313BC001F232808BC00643059
:1009B000BD00B8237808BB002708BC000A30BD0082
:1009C000B82378083B072607AA0024080C3C031D1F
:1009D0002C2D0130C100C200E4212A0803178D002C
:1009E00083168C130C1483120C080313BB00013004
:1009F00003178D0001308F00031008300313BC0073
:100A00001F233B08BC001B30BD00832306300317A7
:100A10008D0001308F00031013300313BC001F231F
:100A20002A08BC001B30BD008323103003178D0043
:100A300001308F00031404300313BC001F23043063
:100A4000BB00FA30C1005D21BB0B212DA601A7011F
:100A5000A801AA01FF30A000E42224080F3C0318DB
:100A60002C2D9E2C2008023C031D952DE4222408E9
:100A70000F3C031C942D2B302407840083130008A3
:100A8000093C031C7B2D08230130C100C200E42176
:100A9000133003178D0001308F0003100B30031348
:100AA000BC001F232808BC001B30BD00832327087F
:100AB000BC001B30BD0083232608BC001B30BD00DA
:100AC00083231B3003178D0001308F000314133074
:100AD0000313BC001F232808BC006430BD00B823EA
:100AE0007808BB002708BC000A30BD00B82378088E
:100AF0003B072607AA0024080C3C031D8F2D01305C
:100B0000C100C200E421263003178D0001308F00A0
:100B100003131B22A601A701A8010330A000E422B1
:100B200024080F3C03188F2D322D2008033C031D91
:100B3000492EE42224080F3C031C482E2B302407A6
:100B4000840083130008093C031CDE2D08230130B8
:100B5000C100C200E421383003178D0001308F003E
:100B6000031008300313BC001F232808BC001B30EF
:100B7000BD0083232708BC001B30BD00832326084B
:100B8000BC001B30BD0083233F3003178D000130B4
:100B90008F00031016300313BC001F232808BC006D
:100BA0006430BD00B8237808BB002708BC000A30B9
:100BB000BD00B82378083B072607A90024080C3C91
:100BC000031D432E2A0803178D000313290803175A
:100BD0008C0083168C130C15831203130B08F7007B
:100BE0008B138316031755308D00AA308D008C149B
:100BF0008C18F82D0C117708831203138B04013025
:100C0000C100C200E4212A0803178D0083168C134B
:100C10000C1483120C080313BB004B3003178D0018
:100C200001308F00031008300313BC001F233B0862
:100C3000BC001B30BD008323503003178D000130F2
:100C40008F00031013300313BC001F232A08BC00BD
:100C50001B30BD0083235A3003178D0001308F00F5
:100C6000031404300313BC001F230430BB00FA300C
:100C7000C1005D21BB0B372EAA01A901A601A70166
:100C8000A801FF30A000E42224080F3C0318432EE3
:060C9000952D2F2C6300DE
:04400E00F420FF3E5D
:00000001FF
;PIC16F887
;CRC=0D75  CREATED="22-Oct-20 16:04"
